:100000000C9461000C947E000C947E000C947E0095
:100010000C947E000C947E000C947E000C947E0068
:100020000C947E000C947E000C947E000C947E0058
:100030000C947E000C947E000C947E000C947E0048
:100040000C94CB000C947E000C947E000C947E00EB
:100050000C947E000C947E000C947E000C947E0028
:100060000C947E000C947E00000000002400270009
:100070002A0000000000250028002B0000000000DE
:1000800023002600290004040404040404040202DA
:100090000202020203030303030301020408102007
:1000A0004080010204081020010204081020000012
:1000B0000007000201000003040600000000000029
:1000C000000011241FBECFEFD8E0DEBFCDBF11E08E
:1000D000A0E0B1E0E0E0F4E002C005900D92A430B1
:1000E000B107D9F711E0A4E0B1E001C01D92A3313E
:1000F000B107E1F70E94EF010C94FE010C9400009F
:10010000EF92FF920F931F930E9413017B018C01CA
:100110008091060190910701A0910801B091090119
:10012000A8019701281B390B4A0B5B0B809100013A
:1001300090910101A0910201B091030182179307F0
:10014000A407B507F0F4E0920601F09207010093CE
:100150000801109309018091040190910501892BF8
:1001600039F481E090E0909305018093040104C08C
:1001700010920501109204018DE0609104010E942B
:100180009B011F910F91FF90EF9008958DE061E02A
:100190000E945C0108951F920F920FB60F921124D6
:1001A0002F933F938F939F93AF93BF9380910E01B3
:1001B00090910F01A0911001B091110130911201A5
:1001C0000196A11DB11D232F2D5F2D3720F02D5736
:1001D0000196A11DB11D2093120180930E019093F1
:1001E0000F01A0931001B093110180910A01909129
:1001F0000B01A0910C01B0910D010196A11DB11D43
:1002000080930A0190930B01A0930C01B0930D0110
:10021000BF91AF919F918F913F912F910F900FBE02
:100220000F901F9018958FB7F89420910E01309180
:100230000F0140911001509111018FBFB901CA0106
:100240000895789484B5826084BD84B5816084BD4E
:1002500085B5826085BD85B5816085BDEEE6F0E03F
:10026000808181608083E1E8F0E01082808182609B
:100270008083808181608083E0E8F0E0808181601C
:100280008083E1EBF0E0808184608083E0EBF0E04C
:10029000808181608083EAE7F0E0808184608083F0
:1002A000808182608083808181608083808180689A
:1002B00080831092C1000895CF93DF93482F50E0C0
:1002C000CA0186569F4FFC0134914A575F4FFA018D
:1002D0008491882369F190E0880F991FFC01E85907
:1002E000FF4FA591B491FC01EE58FF4FC591D491F9
:1002F000662351F42FB7F8948C91932F909589230E
:100300008C93888189230BC0623061F42FB7F894F5
:100310008C91932F909589238C938881832B88834C
:100320002FBF06C09FB7F8948C91832B8C939FBFEF
:10033000DF91CF910895482F50E0CA0182559F4F19
:10034000FC012491CA0186569F4FFC0194914A57A3
:100350005F4FFA013491332309F440C0222351F155
:10036000233071F0243028F42130A1F0223011F52F
:1003700014C02630B1F02730C1F02430D9F404C0C5
:10038000809180008F7703C0809180008F7D809363
:10039000800010C084B58F7702C084B58F7D84BD86
:1003A00009C08091B0008F7703C08091B0008F7D2D
:1003B0008093B000E32FF0E0EE0FFF1FEE58FF4FE9
:1003C000A591B4912FB7F894662321F48C91909560
:1003D000892302C08C91892B8C932FBF0895CF93D2
:1003E000DF930E9421010E94C600C0E0D0E00E947D
:1003F00080002097E1F30E940000F9CFF894FFCF2E
:04040000E80300000D
:00000001FF
